:020000040800F2
:10000000000002200D4A0008DD480008DF48000813
:10001000E1480008E3480008E54800080000000047
:10002000000000000000000000000000512900084E
:10003000E748000800000000E1290008452A000800
:100040005D4A00085D4A00085D4A00085D4A0008F4
:100050005D4A00085D4A00085D4A00085D4A0008E4
:100060005D4A00085D4A00085D4A00085D4A0008D4
:100070005D4A00085D4A00085D4A00085D4A0008C4
:100080005D4A00085D4A00085D4A00085D4A0008B4
:100090005D4A00085D4A00085D4A00085D4A0008A4
:1000A000E94800085D4A00085D4A00085D4A00080A
:1000B0005D4A00085D4A00085D4A0008F5480008EE
:1000C000014900080D490008194900085D4A000867
:1000D0005D4A00085D4A00085D4A00085D4A000864
:1000E0005D4A00085D4A00085D4A00085D4A000854
:1000F0005D4A00085D4A00085D4A00085D4A000844
:100100005D4A00085D4A00085D4A00085D4A000833
:100110005D4A00085D4A00085D4A00085D4A000823
:100120005D4A00085D4A00085D4A00085D4A000813
:100130005D4A00085D4A00085D4A00085D4A000803
:100140005D4A00085D4A00085D4A00085D4A0008F3
:100150005D4A00085D4A00085D4A00085D4A0008E3
:100160005D4A00085D4A00085D4A00085D4A0008D3
:100170005D4A00085D4A00085D4A00080000000072
:080180005D4A00085D4A000819
:1001900010B5054C237833B9044B13B10448AFF3C1
:1001A00000800123237010BDD80000200000000053
:1001B000A45D000808B5034B1BB103490348AFF326
:1001C000008008BD00000000DC000020A45D0008E5
:1001D00001F0FF01102A2BDB10F0070F08D010F8F8
:1001E000013B013A8B422DD010F0070F42B3F6D1FC
:1001F000F0B441EA012141EA014122F007047FF015
:1002000000070023F0E80256083C85EA010586EA6B
:10021000010685FA47F5A3FA87F586FA47F6A5FAA7
:1002200087F68EB9EED1F0BC01F0FF0102F00702B3
:1002300032B110F8013B013A83EA010313B1F8D15E
:100240000020704701387047002D06BF354603383F
:10025000073815F0010F07D1013015F4807F02BF78
:10026000013015F4C03F0130F0BC0138704700BFC9
:1002700053B94AB9002908BF00281CBF4FF0FF310D
:100280004FF0FF3000F07AB9ADF1080C6DE904CE03
:1002900000F006F8DDF804E0DDE9022304B0704761
:1002A0002DE9F0478C460D460446089E002B51D19F
:1002B0008A4217466DD9B2FA82FEBEF1000F0BD00A
:1002C000CEF1200C01FA0EF520FA0CFC02FA0EF722
:1002D0004CEA050C00FA0EF44FEA174A250CBCFB59
:1002E000FAF81FFA87F90AFB18CC45EA0C4508FB17
:1002F00009F3AB420AD9ED1908F1FF3280F02381EE
:10030000AB4240F22081A8F102083D44ED1AA4B2AC
:10031000B5FBFAF00AFB105544EA054400FB09F965
:10032000A14509D9E41900F1FF3380F00A81A14504
:1003300040F2078102383C44A4EB090440EA08403B
:100340000021002E61D024FA0EF400233460736083
:10035000BDE8F0878B4207D9002E54D0002186E8F3
:1003600021000846BDE8F087B3FA83F1002940F088
:100370008E80AB4202D3824200F2FA80841A65EB8F
:1003800003050120AC46002E3FD086E81010BDE8E2
:10039000F08712B90127B7FBF2F7B7FA87FEBEF173
:1003A000000F34D1EB1B3A0C1FFA87FC0121B3FB81
:1003B000F2F8250C02FB183345EA03450CFB08F361
:1003C000AB4207D9ED1908F1FF3002D2AB4200F27F
:1003D000D1808046ED1AA3B2B5FBF2F002FB1055B6
:1003E00043EA05440CFB00FCA44507D9E41900F1DD
:1003F000FF3302D2A44500F2B8801846A4EB0C04E7
:1004000040EA08409DE731463046BDE8F087CEF12E
:10041000200405FA0EF307FA0EF720FA04F83A0C56
:1004200025FA04F448EA0308B4FBF2F14FEA184550
:1004300002FB11441FFA87FC45EA044501FB0CF35B
:10044000AB4200FA0EF409D9ED1901F1FF3080F04A
:100450008A80AB4240F2878002393D44EB1A1FFA92
:1004600088F5B3FBF2F002FB103345EA034500FBCD
:100470000CF3AB4207D9ED1900F1FF386FD2AB4254
:100480006DD902383D44EB1A40EA01418FE7C1F1D2
:10049000200722FA07F88B4005FA01F448EA030323
:1004A00020FA07FE4FEA134CFD404EEA040EB5FB5E
:1004B000FCF94FEA1E440CFB19551FFA83F844EA75
:1004C000054509FB08F4AC4202FA01F200FA01FA10
:1004D00008D9ED1809F1FF3043D2AC4241D9A9F156
:1004E00002091D442D1B1FFA8EFEB5FBFCF00CFB10
:1004F00010554EEA054400FB08F8A04507D9E4185A
:1005000000F1FF3529D2A04527D902381C4440EA22
:100510000940A4EB0804A0FB02894C45C6464D46A1
:1005200015D312D056B1BAEB0E0364EB050404FAEE
:1005300007F7CB401F43CC40376074600021BDE813
:10054000F0871846F8E69046E0E6C245EAD2B8EBF6
:10055000020E69EB03050138E4E72846D7E7404679
:1005600091E78146BEE7014678E702383C4445E71B
:10057000084608E7A8F102083D442BE7704700BF92
:1005800008B50B4B1A6842F400721A601A6842F4FC
:1005900080621A601A6842F480721A60032000F0C8
:1005A0001BF8002004F05CF904F0ACF8002008BD52
:1005B000003C0240034A044B11681B780B44136053
:1005C000704700BFCC5B002000000020014B186882
:1005D000704700BFCC5B0020C31E042B10B504463F
:1005E00003D99221094804F085F8094AD36823F415
:1005F000E0631B041B0C43F0BF63240243F400338D
:1006000004F4E0641C43D46010BD00BFBC5D00086E
:1006100000ED00E00F2A70B504460E46154603D9DA
:10062000AA211A4804F066F80F2E03D9AB21174807
:1006300004F060F8164BD968C1F30221C1F1070339
:100640000A1D042B28BF04230120062A8CBF03396E
:10065000002100FA03F2013A8840324001388A4012
:100660000540002C42EA05024FEA0212ADBF04F138
:10067000604404F00F04074B04F56144B5BFD2B2E7
:10068000D2B21A5584F8002370BD00BFBC5D0008CB
:1006900000ED00E014ED00E0002803DABE2106487A
:1006A00004F028B84209012300F01F0003FA00F00B
:1006B000024B43F822007047BC5D000800E100E0F7
:1006C00090F83530022B03D080234365012070471A
:1006D0000268052380F83530136823F001031360A6
:1006E0000020704790F83500704700009C4B9842FE
:1006F0002DE9F74F04460D4623D003F58063984259
:100700001FD003F5806398421BD003F580639842A5
:1007100017D003F58063984213D003F580639842A5
:100720000FD003F5806398420BD003F580639842A5
:1007300007D003F58063984203D0B321894803F0C2
:10074000D9FF2B689AB212B11B0C1B041BB1B42148
:10075000844803F0CFFF6B68032B17D9A3F1110274
:10076000012A13D9804923F400128A420ED001F5E0
:1007700080118B420AD0A1F570218A4206D07B4AB3
:10078000934203D0B521774803F0B4FFAB68022B46
:1007900003D9B621734803F0ADFFDFF8D8810026F6
:1007A00001232A6803FA06F707EA02094F4540F0D9
:1007B000C4806A6822F01002022A18D12A690D2A20
:1007C00005D90F2A03D0C721664803F093FFF1082B
:1007D00004EB810106F0070290000B6A0F228240B1
:1007E00023EA020E2A69824042EA0E020A626A681D
:1007F00020684FEA460B4FF0030A0AFA0BFA02F0A0
:1008000003016FEA0A0A22F0100200EA0A0001FA64
:100810000BF1013A0143012A216017D8EA68032A43
:1008200003D9DA214F4803F065FFA168EA686B68D5
:100830000AEA010102FA0BF20A43A2606268C3F3FA
:10084000001322EA0702B34013436360E368686859
:100850000AEA030AAB6803FA0BF343EA0A03E3600C
:10086000C3006AD5424A00230193516C41F4804190
:100870005164526C26F0030101F1804102F4804280
:1008800001F59C31019206F0030E019AD1F808C0DF
:100890004FEA8E0E0F2202FA0EF22CEA020C304AB8
:1008A00094421FD003F1804303F501339C424BD0A7
:1008B00003F580639C4249D003F580639C4247D096
:1008C00003F580639C4245D003F580639C4243D08E
:1008D00003F580639C4241D003F580639C4214BFC2
:1008E0000823072303FA0EF343EA0C038B60D8F8BE
:1008F00000206FEA0901C70354BF0A4049EA020217
:10090000C8F80020D8F80420830354BF0A4049EAFD
:100910000202C8F80420D8F80820C70254BF0A40D1
:1009200049EA0202C8F80820D8F80C30820254BF05
:100930000B4049EA0303C8F80C300136102E7FF44F
:100940002FAF03B0BDE8F08F0123CBE70223C9E747
:100950000323C7E70423C5E70523C3E70623C1E74D
:1009600000000240F75D0008000011100000221096
:1009700000380240003C014038B505460C4621B91C
:100980004FF4BF71044803F0B5FE2B691C4214BF3D
:100990000120002038BD00BFF75D000870B5054696
:1009A00016460C4621B940F29F11084803F0A2FEFA
:1009B000012E06D94FF4D071044803F09BFEAC61C0
:1009C00070BD002EFBD12404F9E700BFF75D0008DD
:1009D0002DE9F843089E044690461F46C1F3074997
:1009E0008DB22368B9F1010F0CBF5B699B6935EAD1
:1009F00003030CBF01230023434502D00020BDE8C0
:100A0000F8837B1CEDD0FFF7E1FD801B874201D30B
:100A1000002FE6D100232022236384F83D2084F8B0
:100A20003E30226C84F83C3042F0200222640120E7
:100A3000BDE8F88370B5044608B9012070BD0368AD
:100A4000794A93420CD002F58062934208D002F5B5
:100A50008062934204D040F2BB11744803F04AFE16
:100A60006368734A013B934204D94FF4DE716F48C7
:100A700003F040FEA36833F4804304D040F2BD117C
:100A80006A4803F037FEE36823F47F7323F003031F
:100A900023B14FF4DF71654803F02CFE236923F482
:100AA0000043B3F5804F04D040F2BF115F4803F01C
:100AB00021FE6369012B04D94FF4E0715B4803F018
:100AC00019FEA36933F0FE0304D040F2C111574868
:100AD00003F010FEE36933F0400304D04FF4E171FA
:100AE000524803F007FE236A33F0800304D040F23B
:100AF000C3114E4803F0FEFD94F83D3003F0FF02B1
:100B000023B984F83C20204603F01EFE22682423EB
:100B100084F83D30136823F00103136001F0A6FB55
:100B20006568444B9D420FD8434B984285D9226853
:100B300042495368B0FBF1F123F03F030B4353608C
:100B4000136A23F03F0316E03D4B98427FF675AFE2
:100B500022683A4E5368B0FBF6F623F03F03334366
:100B60005360136A4FF4967123F03F0371434FF4BF
:100B70007A76B1FBF6F1013119431162D1692D4B3F
:100B800021F44F419D4221F0FF0100F1FF3031D8A7
:100B90006D00B0FBF5F00130C0F30B03042B38BF40
:100BA00004230B43D3611168206AE36921F0C0017B
:100BB00003430B4313609168E068236921F4034108
:100BC000034321F0FF010B439360D168A06963697F
:100BD00021F0FF0103430B43D360136843F001038B
:100BE000136000202023206484F83D30206384F8C3
:100BF0003E0070BDA36853B905EB4503B0FBF3F0AD
:100C0000431CC3F30B036BB143F40043C9E719233F
:100C10006B43B0FBF3F0431CC3F30B0313B143F47A
:100C20004043BEE70123BCE700540040305E0008AB
:100C30007F1A0600A08601007F841E0040420F003C
:100C4000FF083D00F7B51D46012D4FF00003044697
:100C50000E461746019306D0102D04D040F6DE2133
:100C60002D4803F047FD94F83D30202B02D00220A0
:100C700003B0F0BD294B46F2A8121B68B3FBF2F299
:100C8000192353430193019B013B0193019969B9D6
:100C90002023216384F83D3084F83E10236C84F8CF
:100CA0003C1043F0200323640120E1E721688B69B5
:100CB0009A07E8D494F83C30012BD8D0012384F86B
:100CC0003C300B68DB075EBF0B6843F001030B6031
:100CD0000B6823F400630B60212384F83D3040232C
:100CE00084F83E30089B63620020BDF82430206405
:100CF0006385638D23850A4BE3626664A764E564BC
:100D000020650B6843F480730B604B6884F83C00EB
:100D100043F4E0634B60ABE7305E000870000020F6
:100D20000000FFFF2DE9F3411E46012E4FF00003A6
:100D300004460F469046019306D0102E04D040F68C
:100D40003631334803F0D6FC94F83D30202B03D0E5
:100D5000022002B0BDE8F0812E4B46F2A8121B68BB
:100D6000B3FBF2F2192353430193019B013B01931F
:100D7000019969B92023216384F83D3084F83E103D
:100D8000236C84F83C1043F0200323640120E0E747
:100D900021688B699A07E8D494F83C30012BD7D0AE
:100DA000012384F83C300B68DB075EBF0B6843F01F
:100DB00001030B600B6823F400630B60222384F8AB
:100DC0003D30402384F83E30089B63620025BDF827
:100DD000243025646385104B608DE3626764C4F83A
:100DE0004880E66425650B6880B243F48063208503
:100DF0000B600B6843F480730B6084F83C50002850
:100E0000A7D04B6843F4E0634B602846A1E700BFDE
:100E1000305E0008700000200000FFFF2DE9F04F59
:100E2000044685B0984689469246FFF7CFFB94F872
:100E30003D30202B054603D0022005B0BDE8F08FE1
:100E400000901923012248492046FFF7C1FD0028E0
:100E5000F2D194F83C30012BEED0012384F83C30E1
:100E60002368DFF804B11A68D2075EBF1A6842F03F
:100E700001021A601A6822F400621A60242384F8BE
:100E80003D3000232364A3F58033E362012709F09A
:100E9000FE092268136843F4807313604FF0011158
:100EA0000095434600222046FFF792FD08B101203D
:100EB000C3E72368C3F81090FFF788FB23685A69DB
:100EC0005B690546C2F34002C3F38023A02694F871
:100ED0003D10A02901D002B903B32368202684F86D
:100EE0003D605A6912F0020F1A6842F400721A60EB
:100EF00026D0002203925A6903929B690393039BB5
:100F000000951923012218492046FFF761FD0028AA
:100F1000CDD184F83D6084F83C008EE7FFF756FBA6
:100F2000401B804502D3B8F1000F01D184F83D6029
:100F300023685A695B69C2F34002C3F38023C6E7A2
:100F40006FF480625A6159460095192301222046A8
:100F5000FFF73EFD0028AAD10137574599D384F801
:100F60003D6084F83C00A2E702001000F7B5174688
:100F70005A1E1F2A04460E461D4647D8254BD3400D
:100F8000DA0707D4B5F12A4F04D040F67F71224822
:100F900003F0B0FB94F83D3003F02803282B33D145
:100FA000002E2FD0002F2DD094F83C30012B2BD0C9
:100FB0002168012384F83C300B68DB075EBF0B68B7
:100FC00043F001030B600B6823F400630B602923DB
:100FD00084F83D300020202384F83E30206467856B
:100FE000638DE562019023854B6901938B690193C1
:100FF000019B4B68666243F4E06384F83C004B60FD
:1010000003B0F0BD0120FBE70220F9E7B3F52A0F9A
:10101000C0D0B7E78B800080305E0008F7B5174678
:101020005A1E1F2A04460E461D4647D8254BD3405C
:10103000DA0707D4B5F12A4F04D041F25E01224805
:1010400003F058FB94F83D3003F02803282B33D1EC
:10105000002E2FD0002F2DD094F83C30012B2BD018
:101060002168012384F83C300B68DB075EBF0B6806
:1010700043F001030B600B6823F400630B602A2329
:1010800084F83D300020202384F83E3020646785BA
:10109000638DE562019023854B6901938B69019310
:1010A000019B4B68666243F4E06384F83C004B604C
:1010B00003B0F0BD0120FBE70220F9E7B3F52A0FEA
:1010C000C0D0B7E78B800080305E000890F83D30DC
:1010D000202B14D1282380F83D3003681A68D207EA
:1010E0005EBF1A6842F001021A601A6842F4806218
:1010F0001A605A6842F440725A6000207047022019
:101100007047806B026890F83D1070B51468466BAC
:10111000856B002324F48064F363EB6314604385E0
:101120001468336524F001042B65146090F83D4089
:10113000602CC9B208D1202280F83D2080F83E30D2
:10114000036403F073F970BD01F0280128290DD163
:10115000146844F001041460146844F4806414605A
:10116000036380F83D1003F069F970BD202280F818
:101170003D2080F83E30F6E790F83D2090F83E3074
:10118000102B10B5D2B20446036805D1222A02BF43
:10119000196821F40061196002F0280128293AD168
:1011A0000022226384F83D105A6812F4006259D07C
:1011B0005A68606B22F400625A6090F83530012B57
:1011C0003C4B35D00365FFF77BFA50B12268606B6A
:1011D000136823F001031360202384F83D30036D6E
:1011E000984794F83D30226C5207DBB212D5282B79
:1011F00010D12268536823F4E06353602E4BE362FE
:10120000202200232363204684F83D2084F83E30CA
:1012100003F00AF910BD5968090504D4602A1CBFFF
:10122000202284F83D200022226384F83E20BBE780
:10123000A06B0365FFF744FA0028D2D023685A69EF
:10124000520605D5626A1B691370636A01336362D3
:101250002268A06B136823F001031360202384F835
:101260003D30BCE794F83D10602915D1202184F869
:101270003D1022645A69500605D5626A1B691370D5
:10128000636A013363622268136823F00103136009
:10129000204603F0CBF8A4E75A69510605D5626AE7
:1012A0001B691370636A01336362204603F0C6F85A
:1012B00097E700BF031100080000FFFF036830B587
:1012C0005A68C56A90F83E100446C9B290F83D00CD
:1012D00010298DB0C0B202D0402940F0B682986982
:1012E000596911F0010F07D1B5F52A0F02D0B5F1F8
:1012F0002A4F52D10DB030BD95054ED5E26AB2F5F8
:101300002A0F0CD10122E26294F83E20402A11D12A
:10131000226D52B9626C02F0FE021A61EAE7E26ADB
:10132000B2F12A4FF0D10822EDE7626C42F00102DF
:10133000D2B2F2E72269B2F5804F1BD194F83D207A
:10134000212A626C12D102F0FE021A61626B12B99C
:10135000A16B0029CED0D26B1AB9A26BD26B002A36
:10136000C8D05A6842F400625A60C3E742F00102F2
:10137000D2B2EAE7226D32B9626CD21102F00602F3
:1013800042F0F002C9E7226D012AB3D1626CD2119A
:1013900002F0060242F0F102BFE70D0703D5950502
:1013A00001D5626CE4E78D0740F1E180950540F1DD
:1013B000DE8094F83E10E26A256B94F83D00222806
:1013C000C9B240F0CC80206D40B9402906D10190CF
:1013D0005A6901929B690193019B8BE7216D81B949
:1013E0002069B0F5404F0CD102915A6902929A6976
:1013F0000292029A1A6842F480721A60236D0133D5
:1014000028E0618D89B251B903915A6903929A69B2
:101410000392039A1A6842F400721A6019E0618D0F
:1014200089B201294AD112F5803F1CD11A6822F4F1
:1014300080621A605A6812F400620DD01A6822F4B1
:1014400080621A60002204925A6904929B69049394
:10145000049B002323654DE705925A6905929A691A
:101460000592059AD6E7082A1CD0202A1AD0122DF8
:101470000DD1012A16D11A6822F480621A60002266
:1014800006925A6906929B690693069BE1E7102A29
:10149000F1D88E4921FA02F2D007ECD51A6842F44D
:1014A0008062EBE71A6822F480621A6000220792D9
:1014B0005A6907929A690792079AABE7618D89B2D8
:1014C00002292CD1102A03D88049D140C90722D43F
:1014D000196821F480611960196841F4006119608C
:1014E00059680D050FD512F5803F08D0511E1F29F0
:1014F0009DBF774ACA40D2430122D00703D45A681D
:1015000042F480525A60002208925A6908929B69FC
:101510000893089B9DE7196841F48061DFE719682B
:1015200041F4806119605968090510D512F5803FB2
:1015300009D0013A1F2A9DBF654921FA02F2D24320
:101540000122D20703D45A6842F480525A60002222
:1015500009925A6909929B690993099B79E70022CC
:101560000A925A690A929B690A930A9BC2E610F092
:10157000040F586800F0AE8005053FF5BBAE11F0D2
:10158000800F01F0040169D0500567D5002965D1AD
:1015900094F83D20258D94F83E10E06AD2B2C9B28D
:1015A000C5B9212A18D1082878D0202876D010F57E
:1015B000803F73D05A6822F4E0625A60112323639B
:1015C000002384F83E30202384F83D30204602F08A
:1015D000BFFE8FE6212A05D040297FF48BAE222A58
:1015E0007FF488AE628D92B21AB95A6822F4806292
:1015F000BAE694F83E20402A26D1226D62B9E26C08
:10160000012AA26C04D1D2B21A61236D023321E700
:10161000C2F307221A61F1E6226D012A02D1A26CFF
:10162000D2B2F7E7226D022A7FF464AE94F83D202F
:10163000222A04D11A6842F480721A605AE694F899
:101640003D20212A7FF456AE626A12F8011B19610F
:101650006262638D013B9BB263854BE600293FF4D8
:1016600049AE92057FF546AEE16A94F83D20212A05
:101670007FF440AE628D92B2002AE5D108290DD0E8
:1016800020290BD011F5803F08D0596821F4E06182
:1016900059601123236384F83E2094E75A6822F4AA
:1016A000E0625A601A6842F400721A600023202235
:1016B000236384F83D2094F83E2084F83E30402A8D
:1016C000204684D102F074FE14E600BF140001002D
:1016D0008180008005053FF50DAE11F0400F01F04F
:1016E000040148D0500546D5002944D194F83D2046
:1016F000222A7FF4FFAD628D92B2032A14D9626A66
:101700001B691370636A01336362638D013B9BB293
:101710006385638D9BB2032B7FF4ECAD2268536825
:1017200023F480635360E5E5E06A02283FF4E2AD0C
:10173000012A3FF6DFAD1A6822F480621A605A6807
:1017400022F4E0625A60626A1B691370636A0133B3
:101750006362638D013B9BB26385202384F83D3037
:1017600094F83E3084F83E10402B68D12163204627
:1017700002F034FEBEE500293FF4BCAD92057FF5D2
:10178000B9ADE26A618D89B20429616A09D15A68EA
:1017900022F480625A601B690B70636A01336362D2
:1017A00057E7608D80B203280CD15868042A20F4D2
:1017B00080605860EFD0022AEDD01A6822F480626F
:1017C0001A60E8E7608D80B20228E4D1012A01D0D6
:1017D000102A28D11A6822F480621A601B690B70E3
:1017E000626A531C6362638D013B9BB2638523680D
:1017F0001B695370636A226801336362638D013B26
:101800009BB26385536823F440735360202384F8AC
:101810003D3094F83E30402B4FF0000384F83E30CA
:101820000DD12363A3E7042A01D0022A03D11A6849
:1018300042F48062D1E71A6842F40072CDE71223C5
:101840002363204602F0C8FD54E5216C21B3596999
:10185000002511F0020F29D012F4007F26D0226C4F
:1018600002B19D6994F83D2002F02802282A16D181
:101870005A6822F480625A6085F004012B064FF00A
:101880000003C1F3800154BFA289228B84F83C304D
:10189000204602F0B9FD2DE59D695969D9E76FF041
:1018A00002025A61002384F83C3023E5CD0640F162
:1018B000AF80950540F1AC8094F83D505A6822F411
:1018C000E0625A6000220B925A690B921A6842F049
:1018D00001021A600B9A1A6822F480621A605A6830
:1018E0001105EDB220D505F0F702222A48D1A06BF0
:1018F0000268526892B26285628D92B21AB1226C0D
:1019000042F0040222645A6822F400625A60FEF730
:10191000E9FE012808D0A06B784B0365FEF7D0FEE6
:1019200010B1A06B036D9847638D9BB213B323680E
:101930005A69520709D5626A1B691370636A0133D9
:101940006362638D013B9BB2638523685A695006CD
:1019500009D5626A1B691370636A01336362638D20
:10196000013B9BB26385638D9BB21BB1236C43F03B
:1019700004032364236C03B32046FFF7FDFBB9E4A3
:10198000606B0268526892B26285628D92B21AB13F
:10199000226C42F0040222645A6822F400625A6007
:1019A000FEF7A0FE0128BFD0606B544B0365FEF725
:1019B00087FE0028B8D0606BB4E72A2D06D12363D8
:1019C000282384F83D30204602F036FD94F83D305F
:1019D000282B0CD14A4BE3622022002323632046AC
:1019E00084F83D2084F83E3002F01EFD82E4236B33
:1019F000222B02D0222D7FF47DAC002320222363F2
:101A000084F83D2084F83E30204602F015FD71E454
:101A100000F0F700212801F0040535D1090627D58B
:101A2000510525D525BB94F83D10628D92B2C9B2FF
:101A3000002A3FF45FAC626A12F8015B1D616262CA
:101A4000628D013A92B26285628D92B2002A7FF471
:101A500051AC29297FF44EAC5A6822F480625A6056
:101A60002823206384F83D30204602F0E6FC41E460
:101A7000002D3FF43FAC95057FF53CAC628D92B2F2
:101A8000002A7FF4E1AD35E4480627D5510525D578
:101A900025BB94F83D20618D89B2D2B200293FF474
:101AA00029AC616A1B690B70636A01336362638DE1
:101AB000013B9BB26385638D9BB2002B7FF41AAC14
:101AC0002A2A7FF417AC2268536823F4806353609A
:101AD00022232363282384F83D3095E7002D3FF42B
:101AE00009AC92057FF506AC628D92B2002A3FF4F4
:101AF00001AC626A1B6913704FE600BF0311000856
:101B00000000FFFFF8B503685F695E6817F4807531
:101B1000044606D016F480751EBF6FF480725A61B9
:101B20000125B90506D5F20542BF6FF4007245F0F4
:101B300002055A61780537D5F10535D594F83EE0B0
:101B4000618D94F83D20206BBEF1200F89B2D2B296
:101B50005AD1002958D102F0F701212903D0282AAF
:101B600052D1212850D194F83D20E16A0829D2B2FF
:101B700001D020292AD1282A28D12C4AE2625A6889
:101B800022F4E0625A606FF480625A611A6822F4AB
:101B900080621A60002320222363204684F83D20BF
:101BA00084F83E3002F040FC3A053CD5F3053AD5C6
:101BB00023686FF4006245F008055A61236C1D43E9
:101BC00025642046BDE8F840FFF7D6BA212A17D190
:101BD0001649E1622263202284F83D20002284F825
:101BE0003E205A6822F4E0625A606FF480625A61C3
:101BF0001A6822F480621A60204602F01EFCD3E7C5
:101C00006FF480625A61CFE76FF480625A6194F892
:101C10003E20102A04BF1A6842F4007245F0040501
:101C200008BF1A60C0E7002DC8D1F8BD0000FFFF53
:101C300090F83D00704700002DE9F341044618B9C3
:101C4000012002B0BDE8F08103680F2B03D9E82121
:101C5000A24802F04FFD2368D80718D423689907DB
:101C60006BD42368190700F1BE8023685A0700F17E
:101C7000E480A369022B04D940F2CF11974802F007
:101C800039FDA269002A40F051810020D9E763683C
:101C900033F4803206D0B3F5A02F03D0ED218F4866
:101CA00002F028FD8E4B9A6802F00C02042A07D03D
:101CB0009A6802F00C02082A0AD15B685A0207D51A
:101CC000874B1B689B03C9D56368002BC6D1B7E758
:101CD0006368834DB3F5803F11D12B6843F48033A3
:101CE0002B60FEF773FC7E4D06462B689F03B5D430
:101CF000FEF76CFC801B6428F7D90320A1E7B3F53D
:101D0000A02F04D12B6843F480232B60E5E72A68D9
:101D100022F480322A602A6822F480222A60002B72
:101D2000DFD1FEF753FC06462B68980396D5FEF7E5
:101D30004DFC801B6428F7D9DFE7E368012B04D949
:101D400040F21F11654802F0D5FC23691F2B04D90E
:101D50004FF49071614802F0CDFC614B9A6812F02B
:101D60000C0F07D09A6802F00C02082A12D15B68A7
:101D700059020FD45A4B1A68920703D5E268012A18
:101D80007FF45EAF1A68216922F0F80242EAC102CC
:101D90001A6066E7E268534BB2B101221A60FEF79F
:101DA00015FC4F4D06462B689F0707D52B68226907
:101DB00023F0F80343EAC2032B6052E7FEF706FC68
:101DC000801B0228EFD998E71A60FEF7FFFB444D0D
:101DD00006462B6898077FF544AFFEF7F7FB801B9C
:101DE0000228F6D989E76369012B04D94FF4B07151
:101DF0003A4802F07FFC62693B4B7AB101221A60DB
:101E0000FEF7E4FB364D06466B6F9B073FF52DAFA3
:101E1000FEF7DCFB801B0228F6D96EE71A60FEF79E
:101E2000D5FB2F4D06466B6F9F077FF51EAFFEF764
:101E3000CDFB801B0228F6D95FE7A368012B06D9EA
:101E4000052B04D04FF4C671244802F053FC244BF8
:101E50001A6C12F0805228D101921A6C42F0805212
:101E60001A641B6C03F080530193019B01261F4DE4
:101E70002B68D8051BD5A368194D012B27D12B6FD3
:101E800043F001032B67FEF7A1FB154D074641F216
:101E900088382B6F9A0743D5002E3FF4EAAE104ADC
:101EA000136C23F080531364E3E60026DFE72B680E
:101EB00043F480732B60FEF789FB07462B68D90536
:101EC000D9D4FEF783FBC01B0228F7D915E7052BF1
:101ED0000ED12B6F43F004032B67D0E7685E000838
:101EE0000038024000004742800E47420070004028
:101EF0002A6F22F001022A672A6F22F004022A6761
:101F0000002BC0D1FEF762FB41F2883807462B6FE9
:101F10009B07C1D5FEF75AFBC01B4045F7D9ECE63D
:101F2000FEF754FBC01B4045B3D9E6E63B4EB36811
:101F300003F00C03082B3FF483AE022A384D5ED128
:101F4000E36933F4800304D04FF4EC71354802F0B8
:101F5000D1FB236A3F2B04D940F2D911314802F05A
:101F6000C9FB636A323BB3F5BF7F04D94FF4ED710F
:101F70002C4802F0BFFBA26A082A04D84FF4AA73C7
:101F8000D340D80704D440F2DB11264802F0B2FB5C
:101F9000E36A023B0D2B04D94FF4EE71214802F0A5
:101FA000A9FB00232B60FEF711FB1C4E074633688C
:101FB00099011ED4226AE3691343626A43EA8213D9
:101FC000E26A43EA0263A26A144C5208013A43EA05
:101FD0000243736001232B60FEF7F8FA054623687D
:101FE0009A013FF552AEFEF7F1FA401B0228F6D9EE
:101FF00083E6FEF7EBFAC01B0228D8D97DE6002362
:102000002B60FEF7E3FA044633689B017FF53DAE93
:10201000FEF7DCFA001B0228F6D96EE60038024013
:1020200060004742685E0008134908B58B6803F0FA
:102030000C03042B03D0082B03D0104808BD104814
:1020400008BD4A684B68496813F4800314BF0C4804
:102050000A48C1F3881118BF002302F03F02A1FB18
:102060000001FEF705F9044B5B68C3F3014301333C
:102070005B00B0FBF3F008BD003802400024F40020
:1020800000127A002DE9F0410D46044610B90120F6
:10209000BDE8F0810368013B0E2B04D94FF41071A9
:1020A0006D4802F027FB072D04D940F241216A4810
:1020B00002F020FB694B1A6802F00F0295423DD8EE
:1020C0002268960742D42368D9076CD4634B1A68F8
:1020D00002F00F029542C0F09C8023685A0700F17D
:1020E000A18023681B0718D5236933F480520CD0D4
:1020F00023F40062B2F5A05F07D0B3F5C05F04D04F
:102100004FF42C71544802F0F5FA554A216993684E
:1021100023F4604343EAC1039360FFF785FF504B0C
:10212000504A9B68C3F30313D35CD8404E4B1860EE
:10213000002002F095FB0020BDE8F081EAB21A70A1
:102140001B6803F00F039D42A1D1B9E7444B12F085
:10215000040F1EBF996841F4E0519960100742BF17
:102160009A6842F460429A60A36833F0800212D009
:1021700023F02002902A0ED023F04002A02A0AD099
:1021800023F01002C02A06D0F02B04D04FF41971AE
:10219000314802F0AFFA324AA168936823F0F003A5
:1021A0000B4393608FE76368032B04D940F26B21E4
:1021B000294802F09FFA6268294B012A1FD11B6847
:1021C00013F4003F3FF463AF254EB36823F00303DD
:1021D0001343B360FEF7FAF941F288380746B36853
:1021E000626803F00C03B3EB820F3FF46FAFFEF7AE
:1021F000EDF9C01B4045F2D90320BDE8F081911EE6
:1022000001291B6802D813F0007FDBE713F0020FEF
:10221000D8E7EAB21A701B6803F00F039D427FF4FF
:1022200036AF5AE7E36833F480520CD023F40062EF
:10223000B2F5A05F07D0B3F5C05F04D040F2A9218A
:10224000054802F057FA064AE168936823F4E05320
:102250000B43936045E700BF685E0008003C024006
:1022600000380240C560000870000020044B054A99
:102270009B68C3F38223D35C034A1068D84070473D
:1022800000380240D560000870000020044B054A69
:102290009B68C3F34233D35C034A1068D84070474D
:1022A00000380240D5600008700000200F23036052
:1022B0000B4B9A6802F0030242609A6802F0F00247
:1022C00082609A6802F4E052C2609B68DB0803F403
:1022D000E0530361034B1B6803F00F030B6070476F
:1022E00000380240003C0240704700000368264A64
:1022F000934210B5044637D0B3F1804F34D0A2F5E5
:102300007C42934230D002F5806293422CD002F599
:102310008062934228D002F58062934224D002F575
:102320008062934220D002F5704293421CD002F5A5
:102330007052934218D002F58062934214D002F595
:102340008062934210D0A2F5983293420CD002F5ED
:102350008062934208D002F58062934204D040F23A
:10236000B1110A4802F0C6F92368DA6842F00102A6
:10237000DA609A6802F00702062A1EBF1A6842F065
:1023800001021A60002010BD00000140A05E00089C
:10239000704770477047704703681A69910710B516
:1023A00004460ED5DA6892070BD56FF002021A6167
:1023B0009B6901229B07027777D0FFF7EAFF002392
:1023C000237723681A69500710D5DA6851070DD5AD
:1023D0006FF004021A619B69022213F4407F227796
:1023E000204668D0FFF7D5FF0023237723681A69BA
:1023F00012070FD5DA6810070CD56FF008021A61C2
:10240000DB6904229907227720465AD0FFF7C1FFE3
:102410000023237723681A69D20610D5DA68D0061C
:102420000DD56FF010021A61DB69082213F4407FAA
:10243000227720464BD0FFF7ACFF00232377236899
:102440001A69D10708D5DA68D20705D56FF00102FD
:102450001A61204602F00EF823681A69100608D5A2
:10246000DA68110605D56FF080021A61204600F087
:102470001CF923681A69520608D5DA68500605D592
:102480006FF040021A612046FFF785FF23681A6942
:10249000910622D5DA6892061FD56FF020022046F9
:1024A0001A61BDE8104000F0FFB8FFF771FF204649
:1024B000FFF770FF83E7FFF76BFF2046FFF76AFF28
:1024C00092E7FFF765FF2046FFF764FFA0E7FFF7FD
:1024D0005FFF2046FFF75EFFAFE710BD304A03689D
:1024E000904212D0B0F1804F0FD0A2F57C429042C2
:1024F0000BD002F58062904207D002F580629042D4
:1025000003D002F57842904219D14A6823F0700353
:102510001343234A904229D0B0F1804F26D0A2F530
:102520007C42904222D002F5806290421ED002F599
:10253000806290421AD002F57842904216D0194A31
:10254000904213D002F5806290420FD002F5806273
:1025500090420BD0A2F59832904207D002F58062EB
:10256000904203D002F58062904203D1CA6823F4FE
:10257000407313434A6923F08003134303608B685D
:10258000C3620B688362064B984203D003F58063F5
:10259000984201D10B69036301234361704700BF77
:1025A000000001400040014010B50446002875D0ED
:1025B00003683B4A934237D0B3F1804F34D0A2F541
:1025C0007C42934230D002F5806293422CD002F5D7
:1025D0008062934228D002F58062934224D002F5B3
:1025E0008062934220D002F5704293421CD002F5E3
:1025F0007052934218D002F58062934214D002F5D3
:102600008062934210D0A2F5983293420CD002F52A
:102610008062934208D002F58062934204D04FF466
:102620008571204802F066F8A36833F010020AD0E2
:1026300023F04002202A06D0402B04D040F20B1198
:10264000184802F057F8236933F4807207D0B3F5C5
:10265000007F04D04FF48671124802F04BF8A36952
:1026600033F0800304D040F20D110E4802F042F81E
:1026700094F83D3003F0FF0223B984F83C20204653
:10268000FFF732FE022384F83D302068211DFFF75A
:1026900025FF012384F83D30002010BD012010BD2E
:1026A00000000140A05E000870477047EFF305830B
:1026B00013B16FF005007047EFF31083002BF8D1D2
:1026C000074B1868022806D1EFF31183002BF0D1D5
:1026D0004FF0FF3070470028FAD101221A6070478E
:1026E0004809002010B5EFF3058313B16FF0050022
:1026F00010BDEFF31084002CF8D1094B1A68022AA0
:1027000006D1EFF31183002BF0D14FF0FF3010BD55
:10271000012AFAD102221A6001F024F8204610BDE5
:1027200048090020F0B587B0144600220B460592F8
:10273000EFF3058272BBEFF310825ABB294A12688D
:10274000022A02D1EFF3118222BB18B300228DF8C6
:102750001320002C3DD0216809B90DF11301A569A2
:10276000002D08BF18256A1E372A2F4637D8626801
:10277000D20734D4666986B1B208D4F808E0D4F838
:102780000CC0BEF1000F0BD0BCF1530F02D924696D
:1027900004B1B6B9059807B0F0BD4FF40072ECE78C
:1027A000BCF1000FF6D12469002CF3D105AC0194E3
:1027B000009792B200F0A9FF01281CBF00230593E7
:1027C000E8E7CDF808E00194009500F067FF059078
:1027D000E0E718274FF400720DF11301E6E700203F
:1027E000D9E700BF48090020034B0360034B0B608F
:1027F0004FF4007313607047F4080020F4000020C9
:10280000034B0360034B0B604FF48063136070470E
:102810004C1900204C09002000F1080343604FF0E0
:10282000FF32C360036100238260036070470023AE
:102830000361704743684B609A688A609A68516088
:102840009960036808610133036070470A68531C8C
:1028500030B50AD103695A684A6091608B6059604B
:10286000036808610133036030BD00F108035C6850
:102870002568AA42EFD32346F9E7416882680369D5
:102880008A60826851605968884208BF5A60002295
:1028900002611A68013A1A601868704782B0002312
:1028A00001930D4B1B68013308D04FF0500383F3A5
:1028B0001188BFF36F8FBFF34F8FFEE74FF05003C8
:1028C00083F31188BFF36F8FBFF34F8F019B002BF2
:1028D000FCD002B0704700BF040000200848006828
:1028E000006880F308884FF0000080F3148862B617
:1028F00061B6BFF34F8FBFF36F8F00DF00BF0000E3
:1029000008ED00E0DFF80C00016841F4700101609F
:102910007047000088ED00E04FF0807340F8043C01
:10292000074B40F80C3C21F001016FF0020340F826
:10293000081C40F8202C40F8243C4438704700BF65
:102940009D280008000000000000000000000000BA
:10295000074B19680868B0E8F04F80F30988BFF3A7
:102960006F8F4FF0000080F311887047AFF3008045
:10297000C05500204FF0500383F31188BFF36F8FD1
:10298000BFF34F8F0A4A13680133012B13600DD137
:10299000084B1B6813F0FF0F08D04FF0500383F370
:1029A0001188BFF36F8FBFF34F8FFEE7704700BFF3
:1029B0000400002004ED00E0084A136843B94FF01A
:1029C000500383F31188BFF36F8FBFF34F8FFEE780
:1029D000013B13600BB983F311887047040000209A
:1029E000EFF30980BFF36F8F154B1A681EF0100FBD
:1029F00008BF20ED108A20E9F04F10602DE9090092
:102A00004FF0500080F31188BFF34F8FBFF36F8FEB
:102A100001F022F84FF0000080F3118809BC19681A
:102A20000868B0E8F04F1EF0100F08BFB0EC108A35
:102A300080F30988BFF36F8F704700BFAFF300804A
:102A4000C055002008B54FF0500383F31188BFF341
:102A50006F8FBFF34F8F00F0D7FE18B1034B4FF0CD
:102A600080521A60002383F3118808BD04ED00E052
:102A7000084A0949002313600B60084B4FF47A7130
:102A80001B68B3FBF1F30649013B0B60072313609E
:102A9000704700BF10E000E018E000E07000002088
:102AA00014E000E0394B3A4A13B51968914208D155
:102AB0004FF0500383F31188BFF36F8FBFF34F8F35
:102AC000FEE71A68334B9A4208D14FF0500383F364
:102AD0001188BFF36F8FBFF34F8FFEE72E4B1A782D
:102AE000D2B20192FF221A701B782C4ADBB28DF809
:102AF00003309DF8033003F050031370284B072276
:102B00001A6000219DF80300000602F1FF340DD485
:102B100001B11A601A68032A11D04FF0500383F3F1
:102B20001188BFF36F8FBFF34F8FFEE79DF803202F
:102B30005200D2B28DF8032001212246E2E71202B0
:102B400002F4E0621A60019B134ADBB21370154B6A
:102B50001A6842F470021A601A6842F070421A60F1
:102B6000FFF786FF104B00241C60FFF7CBFE0F4AD7
:102B7000136843F040431360FFF7B0FE00F06CFFB2
:102B8000FFF78CFE204602B010BD00BF00ED00E054
:102B900071C20F4170C20F4100E400E0A019002093
:102BA000A419002020ED00E00400002034EF00E034
:102BB000EFF305830F2B0ED9104A9B5C104A127855
:102BC0009A4208D94FF0500383F31188BFF36F8FF7
:102BD000BFF34F8FFEE70B4B0B4A1B68126803F4E1
:102BE000E063934208D94FF0500383F31188BFF399
:102BF0006F8FBFF34F8FFEE7704700BFF0E300E039
:102C0000A01900200CED00E0A419002010B50F4B16
:102C10001A68824218D35C681919884201BF41685A
:102C2000184609195960446801198A4207D10849B0
:102C300009688A421FBF51681268091941609842A9
:102C4000026018BF186010BD1346E1E7B8550020B8
:102C5000A81900202DE9F041044600F0C7FD3E49C7
:102C60003E4D0B680BBB3E4A56071FBFD01D20F0E0
:102C7000070002F570531B1A14BF02464FF470533D
:102C80001344083B23F00703364E0B6000207060AE
:102C9000326058601860981A1360334B50601860A7
:102CA000324B18604FF000432B602F68274216D13B
:102CB000002C41D004F1080358071CBF23F0070380
:102CC000083363B1294A1668B342904607D8254AAB
:102CD00015686868834204D809688D4207D10024CA
:102CE0002AE02C68002CF7D02A462546F1E729680F
:102CF00014681160C21A102A0FD9E818410708D0C9
:102D00004FF0500383F31188BFF36F8FBFF34F8FE2
:102D1000FEE742606B60FFF779FF13496B68086854
:102D2000F61A1F4386424FF00003C8F8006038BF10
:102D30000E6008346F602B6000F0F6FD630708D06A
:102D40004FF0500383F31188BFF36F8FBFF34F8FA2
:102D5000FEE72046BDE8F081A8190020AC55002010
:102D6000AC190020B8550020B4550020B055002003
:102D700010B5044670B3184A50F8043C1268134268
:102D800008D14FF0500383F31188BFF36F8FBFF367
:102D90004F8FFEE750F8081C41B14FF0500383F30A
:102DA0001188BFF36F8FBFF34F8FFEE723EA020353
:102DB00040F8043C00F01AFD084A54F8043C11683D
:102DC000A4F108000B441360FFF720FFBDE810409A
:102DD00000F0AABD10BD00BFAC550020B0550020CA
:102DE00010B50446FFF7C6FDA46BFFF7E5FDB4FA86
:102DF00084F0400910BD70B51546026C866B044620
:102E000042B905689DB9406800F038FF6560013639
:102E1000A66370BD6DB9806801F04CFEA368226C9A
:102E200013446268A360934201D32368A360002027
:102E3000EDE7C06801F03EFE236CE26821685B426A
:102E40001A448A42E2603EBF62689B18E360022D2A
:102E5000EDD10EB1013EEAE73046D8E7034610B4A3
:102E60001A6C084662B1D9685C681144A142D96005
:102E700024BF1968D960D9685DF8044B01F01ABE07
:102E80005DF8044B704770B50446FFF773FD94F886
:102E9000455004F124066DB2002D14DCFF2384F8A4
:102EA0004530FFF789FDFFF765FD94F8445004F1C4
:102EB00010066DB2002D12DCFF2384F84430BDE80B
:102EC0007040FFF779BD636A002BE7D0304600F011
:102ED00037FE08B100F0BCFE013D6DB2DCE72369AE
:102EE000002BE9D0304600F02BFE08B100F0B0FE18
:102EF000013D6DB2DEE7000038B50D46044640B92D
:102F00004FF0500383F31188BFF36F8FBFF34F8FE0
:102F1000FEE7FFF72FFD206CE36B2268A2604343BE
:102F2000D1181B1A13446160E3600021FF23A163E1
:102F300084F8443084F8453095B9236963B104F1CD
:102F4000100000F0FDFD38B10A4B4FF080521A60BE
:102F5000BFF34F8FBFF36F8FFFF72EFD012038BDFA
:102F600004F11000FFF758FC04F12400FFF754FCB3
:102F7000F2E700BF04ED00E013B51C4640B94FF086
:102F8000500383F31188BFF36F8FBFF34F8FFEE7BA
:102F900043B94FF0500383F31188BFF36F8FBFF332
:102FA0004F8FFEE74AB1D9B94FF0500383F3118830
:102FB000BFF36F8FBFF34F8FFEE789B14FF0500320
:102FC00083F31188BFF36F8FBFF34F8FFEE74FF08E
:102FD000500383F31188BFF36F8FBFF34F8FFEE76A
:102FE00048230193019B482BF1D10123002908BFFD
:102FF0002246E063216484F8463022601946204668
:10300000FFF77AFF204602B010BD00002DE9FF4710
:10301000894601921F46044640B94FF0500383F39E
:103020001188BFF36F8FBFF34F8FFEE7002940F089
:103030008880036C002B00F084804FF0500383F3F2
:103040001188BFF36F8FBFF34F8FFEE7019E002EF5
:1030500000F082804FF0500383F31188BFF36F8F2D
:10306000BFF34F8FFEE7019D1DB9FFF7A5FC0020C0
:1030700058E016B902A800F0A3FDFFF79DFC00F090
:10308000B5FBFFF777FC94F84430FF2B08BF84F8BA
:10309000448094F84530FF2B08BF84F84580FFF743
:1030A0008BFC01A902A800F097FD002843D1FFF78F
:1030B00061FCA66BE56BFFF77FFCAE4235D1019951
:1030C00004F1100000F004FD2046FFF7DCFE00F0E4
:1030D0002BFC38B94FF08053CAF80030BFF34F8F44
:1030E000BFF36F8F0126FFF745FCA26BE36B9A429B
:1030F00001D3022FB7D13A4649462046FFF77BFE5F
:10310000636A1BB104F1240000F01AFD38B1194BB9
:103110004FF080521A60BFF34F8FBFF36F8FFFF7EE
:103120004BFC012004B0BDE8F0872046FFF7ABFE62
:1031300000F0FAFBD6E72046FFF7A5FE00F0F4FB0F
:1031400095E7022F02D1E36B012B0AD100F086FD37
:1031500000283FF47BAF00264FF00008DFF814A0F2
:10316000C1E74FF0500383F31188BFF36F8FBFF3B4
:103170004F8FFEE704ED00E02DE9F84388469146C5
:103180001F46044640B94FF0500383F31188BFF344
:103190006F8FBFF34F8FFEE709BB036CFBB14FF09E
:1031A000500383F31188BFF36F8FBFF34F8FFEE798
:1031B00004F1240000F0C4FC002834D0B9F1000F61
:1031C00031D00120C9F8000086F31188BDE8F883EA
:1031D00001356DB284F8455025E00020F4E7022F58
:1031E00002D1E36B012B20D1FFF7E2FCEFF3118654
:1031F0004FF0500383F31188BFF36F8FBFF34F8FEE
:10320000A26BE36B9A4201D3022FE6D194F84550AA
:103210003A466DB241462046FFF7EDFD6B1CD7D113
:10322000636A002BC4D10120CEE74FF0500383F333
:103230001188BFF36F8FBFF34F8FFEE72DE9F04387
:1032400085B088460192044640B94FF0500383F39D
:103250001188BFF36F8FBFF34F8FFEE7002940F057
:103260008680036C002B00F082804FF0500383F3C4
:103270001188BFF36F8FBFF34F8FFEE7019E002EC3
:103280007AD04FF0500383F31188BFF36F8FBFF3F1
:103290004F8FFEE7019D1DB9FFF78EFB002052E026
:1032A00016B902A800F08CFCFFF786FB00F09EFA2E
:1032B000FFF760FB94F84430FF2B08BF84F844709C
:1032C00094F84530FF2B08BF84F84570FFF774FB76
:1032D00001A902A800F080FC00283DD12046FFF79C
:1032E0007FFD98B3019904F1240000F0F1FB204622
:1032F000FFF7C9FD00F018FB38B94FF08053C9F84B
:103300000030BFF34F8FBFF36F8F0126FFF732FB03
:10331000A56B002DBED041462046013DFFF79EFD26
:10332000A563236963B104F1100000F009FC38B112
:10333000134B4FF080521A60BFF34F8FBFF36F8F64
:10334000FFF73AFB012005B0BDE8F0832046FFF708
:103350009AFD00F0E9FAD8E72046FFF794FD00F067
:10336000E3FA2046FFF73CFD0028CED096E700F0B8
:1033700075FC002882D000260027DFF80490C5E7FE
:1033800004ED00E030B5074A002352F8335002EB59
:10339000C3041DB942F83310606030BD0133082BFF
:1033A000F3D130BDD05B002070B504460D46164603
:1033B000FFF7E0FA94F84430FF2B04BF002384F8B1
:1033C000443094F84530FF2B04BF002384F8453087
:1033D000FFF7F2FAA36B2BB93246294604F1240019
:1033E00000F090FB2046BDE87040FFF74CBD0000A8
:1033F0002DE9F0410646FFF7BDFA2D4B2D4C1A681A
:103400002D4F01321A602568002D46D126601B68B9
:10341000012B1DD178191435FFF7FEF9B5F58C6F26
:10342000F8D1DFF8C080254D4046FFF7F5F9284672
:10343000FFF7F2F92248FFF7EFF92248FFF7ECF91E
:103440002148FFF7E9F9214BC3F80080204B1D60AC
:10345000204A1368013313601F4AF36A116814206D
:103460008B4200FB037006F1040188BF1360FFF775
:10347000E1F9FFF7A1FA194B1B6863B12368DA6A17
:10348000F36A9A4207D2164B4FF080521A60BFF38C
:103490004F8FBFF36F8FBDE8F081104B1B68002B7F
:1034A000D6D12368DA6AF36A9A4298BF2660CFE7DA
:1034B0002C5A0020C0550020CC550020585A00201E
:1034C000745A0020A05A00208C5A0020C4550020B5
:1034D000C85500203C5A0020405A0020885A00203D
:1034E00004ED00E0445A0020064A13681968064BB0
:1034F00019B94FF0FF321A6070471268D268D2686B
:103500005268F8E7C45500206C5A00202DE9F047B6
:103510000A9CDDF82480266B02F18042013A06EB1A
:1035200082069A4681464B1E26F0070604F13402B5
:103530000F31587802F8010B13F8010F08B18B42D4
:10354000F7D1089D372D28BF37250027E562656430
:10355000201D84F84370A764FFF769F9C5F13805A9
:1035600004F11800FFF763F9E7642461A561646260
:1035700084F85070524649463046FFF7CDF9206036
:10358000B8F1000F01D0C8F80040BDE8F08710B5D1
:1035900090F8513004463BB9006BFFF7E9FB204639
:1035A000BDE81040FFF7E4BB012BF9D0022B08D097
:1035B0004FF0500383F31188BFF36F8FBFF34F8F2A
:1035C000FEE710BD80B5DFF85C80124F124C134D42
:1035D000236863B9124B1B68012BF8D94FF0805355
:1035E000C8F80030BFF34F8FBFF36F8FEEE7FFF7E0
:1035F000C1F9FB68DE68301DFFF73FF92B68013B1E
:103600002B602368013B2360FFF7D6F93046FFF7B4
:10361000BEFFDDE7A05A0020305A00202C5A0020BF
:10362000CC55002004ED00E0F8B5164B164D1E6891
:103630000446286804300F46FFF71FF9631C2B4629
:1036400007D137B1296811480431BDE8F840FFF7C8
:10365000F1B834441A68A642546007D90C4A10687D
:103660001968BDE8F8400431FFF7F0B8094A10685E
:1036700019680431FFF7EAF8074B1A68944238BF1B
:103680001C60F8BDB45A0020C05500208C5A0020A0
:10369000C8550020C45500206C5A002070B586B073
:1036A0000B9D0C9C45B94FF0500383F31188BFF379
:1036B0006F8FBFF34F8FFEE744B94FF0500383F392
:1036C0001188BFF36F8FBFF34F8FFEE75426049628
:1036D000049E542E08D04FF0500383F31188BFF39B
:1036E0006F8FBFF34F8FFEE72563022584F851509B
:1036F00005AD01950A9D02940095FFF707FF20464E
:10370000FFF776FE059806B070BD2DE9F043074639
:1037100085B09000884616469946FFF79BFA054605
:10372000E8B15420FFF796FA0446A8B1002380F8C8
:1037300051300D9B056301930C9B02900093324620
:103740004B4641463846FFF7E1FE2046FFF750FE64
:10375000012005B0BDE8F0832846FFF709FB4FF0D4
:10376000FF30F6E710B588B0002407AA06A905A81F
:1037700005940694FFF738F8059B0293069B019386
:1037800000942346079A14491448FFF787FFA0B90D
:1037900008B010BD4FF0500383F31188BFF36F8F53
:1037A000BFF34F8F0E4B4FF0FF321A600D4B186076
:1037B0000D4B1C60FFF776F9EAE700F0F3FA0128F9
:1037C000E8D00130E4D14FF0500383F31188BFF308
:1037D0006F8FBFF34F8FFEE7D85E0008C535000836
:1037E0006C5A0020885A0020B45A0020024A1368FC
:1037F00001331360704700BF385A0020014B18682E
:10380000704700BFB45A00202DE9F84F3B4B1B68AE
:10381000002B51D13A4B1C6801341C60BCB9394BA8
:103820001A68126842B14FF0500383F31188BFF356
:103830006F8FBFF34F8FFEE7334A19681068186027
:103840001160324A136801331360FFF74DFE304DAB
:10385000304F2B689C424FF0000B3CD3DFF8A48024
:10386000DFF8C090D8F80020126862BB4FF0FF323A
:103870002A6030E006F1040A5046FEF7FEFFB16A06
:1038800019B106F11800FEF7F8FFF06AD9F8001038
:10389000214B88424FF0140288BFC9F800005146FE
:1038A00002FB0030FEF7C6FF3868F16AC26A914237
:1038B00028BF4FF0010BD5E7184A13680133136096
:1038C0004FF0000B11E0D8F80020D268D66871687C
:1038D0008C42CFD229603A680F4BD16A14224A43F6
:1038E0009A58022A28BF4FF0010B0D4A1268002A8D
:1038F00018BF4FF0010B5846BDE8F88F385A00202A
:10390000B45A0020C4550020C8550020705A002029
:103910006C5A0020C0550020CC550020345A00209D
:10392000B85A0020405A00202DE9F0412F4C23685E
:1039300043B94FF0500383F31188BFF36F8FBFF388
:103940004F8FFEE7FFF716F82368013B23602468DA
:103950002CB10024FFF730F82046BDE8F081244B5D
:103960001B68002BF5D0234E234FDFF8A08033686F
:10397000E3B90CB1FFF7B8FD204D2C6844B1204EDF
:103980000127FFF741FF00B13760013CF9D12C60FE
:103990001B4B1B68002BDCD01A4B4FF080521A6077
:1039A000BFF34F8FBFF36F8F0124D3E7F368DC6859
:1039B000251D04F11800FEF760FF2846FEF75DFFA5
:1039C000E36A3A681420934200FB0380294688BFCB
:1039D0003B60FEF72FFF0C4BE26A1B68DB6A9A42E2
:1039E00022BF074B01221A60C1E700BF385A0020EE
:1039F0002C5A0020745A0020405A0020345A0020CB
:103A0000B85A002004ED00E0C0550020CC5500203D
:103A100008B540B90E4B4FF080521A60BFF34F8F7C
:103A2000BFF36F8F08BD0B4B196841B14FF05003C6
:103A300083F31188BFF36F8FBFF34F8FFEE7FFF75C
:103A4000D5FEFFF7F1FDFFF76FFF0028E2D008BDBC
:103A500004ED00E0385A0020184B1A68184BF0B5F6
:103A600012B101221A60F0BD164D1A60164A2B6879
:103A70001427164607FB03F1501854588CB14468BC
:103A80000831646844600A44944204BF626842603A
:103A9000142202FB03625268D1680C4A11602B6049
:103AA000F0BD43B94FF0500383F31188BFF36F8F1C
:103AB000BFF34F8FFEE7013BDCE700BF385A002021
:103AC000B85A0020405A0020CC550020C055002094
:103AD00010B50C4640B94FF0500383F31188BFF383
:103AE0006F8FBFF34F8FFEE7054B19681831FEF754
:103AF000ADFE20460121BDE81040FFF795BD00BF97
:103B0000C055002038B50D46144640B94FF050035B
:103B100083F31188BFF36F8FBFF34F8FFEE7074B1F
:103B200019681831FEF786FE002C21460CBF284686
:103B30004FF0FF30BDE83840FFF776BDC05500209C
:103B400038B5C368DC6844B94FF0500383F311887B
:103B5000BFF36F8FBFF34F8FFEE704F118052846C0
:103B6000FEF78BFE104B1B68DBB9251D2846FEF7C0
:103B700084FE0E4AE36A11688B4288BF13600C4AC8
:103B80001420294600FB0320FEF754FE094BE26A8D
:103B90001B68DB6A9A4283BF074B01201860002034
:103BA00038BD29460548EFE7385A0020405A002022
:103BB000CC550020C0550020B85A0020745A00206F
:103BC000034B1B680360034B1B684360704700BFD7
:103BD000705A0020B45A002070B50C46054640B912
:103BE0004FF0500383F31188BFF36F8FBFF34F8FF4
:103BF000FEE741B94FF0500383F31188BFF36F8F95
:103C0000BFF34F8FFEE7FEF7B5FE0F4B69681A68EA
:103C10002368581C0ED00D482E680068864201D0DB
:103C20008A420ED2521A9A4209D29B1A236028461F
:103C3000FFF7C6FF0024FEF7BFFE204670BD00233D
:103C400023600124F7E700BFB45A0020705A002017
:103C5000014B01221A607047B85A0020054B1B68BF
:103C600033B1054B1B68002B0CBF022000207047AE
:103C700001207047885A0020385A002038B5044681
:103C800008B9002038BD1B4B1B68984208D04FF084
:103C9000500383F31188BFF36F8FBFF34F8FFEE79D
:103CA000836C43B94FF0500383F31188BFF36F8FD8
:103CB000BFF34F8FFEE7C16A426C013B91428364C0
:103CC000DFD0002BDDD1051D2846FEF7D6FD636C45
:103CD000E362C3F13802A261074A11688B4288BFD0
:103CE0001360064A142000FB03202946FEF7A2FDBC
:103CF000012038BDC0550020405A0020CC5500207E
:103D0000F7B5114CFEF736FE2568BDB90F4F104EC2
:103D10003846FEF781FD3046FEF77EFD0D4B0E4A1C
:103D20001F600E4B0C211E600A2000950C4BFFF704
:103D300023F9206010B10B49FFF724FB03B0BDE865
:103D4000F040FEF739BE00BFB05B00203C5B0020B6
:103D5000505B0020BC5A0020C45A0020C05A0020EA
:103D6000685B0020DD5E0008914208B5416000619B
:103D70000AD8D21A83699A420DD2084B011D1868DD
:103D8000FEF764FD002008BD9A4201D2994202D29A
:103D9000011D034BF3E7012008BD00BFC05A0020FE
:103DA000BC5A002010B588B0FFF7AAFF134B1B6860
:103DB00043B94FF0500383F31188BFF36F8FBFF304
:103DC0004F8FFEE7002407AA06A905A805940694CC
:103DD000FEF716FD059B0293069B019302230093B9
:103DE000079A074907482346FFF758FC064B186017
:103DF0000028DED0012008B010BD00BFB05B00205D
:103E0000E25E0008E13E0008B45B002030B51546D4
:103E100085B01A46034640B94FF0500383F311882A
:103E2000BFF36F8FBFF34F8FFEE70D4C206880B15B
:103E300005290191029503930DDCFFF70FFF002385
:103E4000022808BF089A206818BF1A4601A9FFF780
:103E5000DDF805B030BD002301A9FFF78DF9F8E7C3
:103E6000B05B00202DE9F3411B4D4FF000082B689B
:103E70001A6832B9194A11682960136002B0BDE8A6
:103E8000F081DB68DC681E68271D3846FEF7F5FC0C
:103E9000636A20469847E369012BE8D1A36933445C
:103EA0009E4206D26360246139462868FEF7CEFC44
:103EB000DDE70023CDF80080324619462046FFF7A3
:103EC000A5FF0028D3D14FF0500383F31188BFF32F
:103ED0006F8FBFF34F8FFEE7BC5A0020C05A0020FF
:103EE0002DE9F04F6E4DDFF8C88189B02F462B6861
:103EF000D3F800B0BBF1000F43D0DB68D3F80090DB
:103F0000FFF774FCFFF77AFC664B1A689042824612
:103F10001E4638D20393FFF7A5FF039B0124C3F885
:103F200000A0002C40F08280BBF1000F63D0D1458F
:103F30007AD8FFF7F9FC3B68DB68D3F80CB00BF1DB
:103F40000400FEF79AFCDBF81C30012B1DD1DBF8D6
:103F500018104B46524649445846FFF705FFA0B19A
:103F6000009423464A4621465846FFF74FFF60B962
:103F70004FF0500383F31188BFF36F8FBFF34F8F60
:103F8000FEE7D946BCE70024C9E7DBF824305846F1
:103F90009847DFF81891D9F80000002205A9FFF72B
:103FA0004DF90028A3D0059B002BF4DB079C636927
:103FB00013B1201DFEF761FCFFF720FC3368984227
:103FC000834601D2FFF74EFF059AC6F800B0092AD2
:103FD000E1D80123934013F4047A4ED113F0C70FB4
:103FE00027D19B06D7D594F82830002BD3D1204673
:103FF000FEF7BEFECFE72C4B1B681A68B2FA82F2BE
:1040000052092A4BA9EB0A011868FFF7CDF9FFF70F
:104010008BFC0028BDD14FF08053C8F80030BFF3AF
:104020004F8FBFF36F8FB4E72246EAE7FFF77CFCC0
:10403000AFE7A169069B5A4619442046FFF794FE54
:104040000028A8D0636A20469847E369012BA2D1D3
:10405000A2690699CDF800A00A445346514620466D
:10406000FFF7D4FE002896D14FF0500383F3118858
:10407000BFF36F8FBFF34F8FFEE70699A16141B980
:104080004FF0500383F31188BFF36F8FBFF34F8F4F
:10409000FEE75B465A4659442046FFF765FE7AE73D
:1040A000BC5A0020645B0020C05A0020B05B002096
:1040B00004ED00E02DE9F04F664CDFF8C881664E54
:1040C00098F80030327821786448DFF8BCA1DFF836
:1040D000BCB185B000F002FD00252F46A1460221AB
:1040E0005046FCF749FC0128044656D10022022123
:1040F0005046FCF753FC002202215046FCF74EFCD0
:10410000002202215046FCF749FC2046FFF780FCC4
:104110005348544C00F06AFD4FF0FF3301223178D0
:104120002046FCF77BFE80BB4F4B044609F8044059
:10413000214618460134039300F0D0FC102C039B59
:10414000F4D10A2000F0E2FC019423463A4631788B
:10415000CDF800904348454CFCF774FD1037BFB2D2
:104160002378B3B13946424800F0B8FC00232370ED
:104170003C4C2046FDF75CFD2028FAD10120FFF7DA
:1041800047FC0120FFF744FCA9E70120FFF740FCB2
:10419000C2E70120FFF73CFCE2E701213548FCF7CC
:1041A000EBFB01280446ECD1334800F01FFD21460B
:1041B00000223048FCF7F2FB214600222D48FCF794
:1041C000EDFB214600222B48FCF7E8FB2046FFF7D9
:1041D0001FFC244C31784FF0FF3301222046FCF7BE
:1041E0001DFE70BB102331780193CDF800802A4664
:1041F0001C48FCF797FD9BF8001031B31F4800F0F6
:104200006DFC29461E4800F069FC174B002418F885
:10421000041003931846013400F060FC102C039B3B
:10422000F5D10A2000F072FC103500230D4C8BF8FC
:104230000030ADB22046FDF7FBFC2028FAD1642007
:104240009DE70120FFF7E4FBC4E70120FFF7E0FB57
:10425000D1E700BF3B00002008000020865F000877
:10426000C95F0008185C0020DC5F0008B95B002013
:10427000E35F0008000002400F6000081B600008B8
:10428000356000080900002000080240B85B0020EB
:104290002DE9F0412748284D284C9AB000F0A6FCA3
:1042A00000232B702046FCF711FF0028FAD1234E83
:1042B000234F04463046FCF709FF2B7843B1FCF747
:1042C00085F9001BB0F57A7F02D9FCF77FF9044627
:1042D00000232B703B78012B03D00120FFF798FBC4
:1042E000E8E71A4601A93046FCF798FEDFF85C8043
:1042F0004046FDF79DFC2828FAD19DF80430012B9B
:1043000014D010D30F2B13D1BC238DF8043001220D
:10431000202301A93046FCF729FE3046FDF788FC32
:104320002028FAD1D9E7074B1B78EEE7064BFBE7CD
:10433000FF23EAE741600008BA5B00206C5C0020C4
:10434000C05C0020145C0020C85C0020185C0020C9
:1043500010B50268124B9A4292B01FD003F58063E9
:104360009A420CBF02220022448D038D0D48018821
:10437000A4B2214489B20180181B80B2029001913D
:104380000094094905A800F039FC05A800F0A6FB37
:1043900014B9064B01221A7012B010BD0122E3E7D6
:1043A00000540040BC5B00202D5F0008B95B00207A
:1043B0000268064B9A4208D1054B01221A70438DC0
:1043C0009BB213B1034800F011BC70470054004089
:1043D000B95B00205E5F00087047000008B5026806
:1043E000064B9A4205D1438D9BB213B1044800F0AD
:1043F000FDFB044B01221A7008BD00BF00540040B1
:104400005E5F0008B85B00200268044B9A4204D14A
:10441000034B1970034B01221A707047005800407B
:10442000C05C0020BA5B002070470000014800F02B
:10443000DDBB00BFF95E00087047704700B5026839
:104440000A4B9A428FB00FD003F580639A420CBF9B
:1044500002220022064901A800F0D0FB01A800F0CA
:104460003DFB0FB05DF804FB0122F3E70054004070
:10447000165F00080268034B9A4201D1FCF79AB814
:10448000704700BF00400140014800F0AFBB00BFD3
:10449000EA5E000810B594B03022002108A800F0B0
:1044A00014FB1422002103A800F00FFB204B002175
:1044B00001911A6C42F080521A641B6C03F0805315
:1044C0000193019B1B4B02911A6842F480421A60CF
:1044D0001B6803F480430293029B012308934FF46B
:1044E000803309934FF4800302240F93A8220423FE
:1044F00008A80E941093119212941393FDF79CFB4D
:1045000008B1FFF7C1FF0F230393002305934FF476
:10451000A053069305214FF4805303A804940793F6
:10452000FDF7B0FD08B1FFF7AFFF14B010BD00BF3D
:10453000003802400070004000B599B0FCF720F848
:10454000FFF7A8FF142200210FA800F0BEFA0024F4
:10455000584B01941A6B584842F080021A631A6B48
:1045600002F080020192019A02941A6B42F0040256
:104570001A631A6B02F004020292029A03941A6BF5
:1045800042F001021A631A6B02F001020392039ACD
:1045900004941A6B42F002021A631A6B02F00202D0
:1045A0000492049A05941A6B42F008021A631B6B7A
:1045B00003F00803059322460121059BFCF7EEF961
:1045C000224608213D48FCF7E9F901250FA93A48A0
:1045D0000F950226109511941294FCF787F80FA9F5
:1045E00035480F9610941196FCF780F80FA93448BF
:1045F0000F9510941196FCF779F808232F480F9324
:104600000FA91095119412942E4DFCF76FF82E48B7
:104610002E4B846080E828004FF48043C46003611F
:1046200044618461C4610462FCF704FA08B1FFF7D5
:104630002BFF2748274B7C2280E82800C2600023FC
:104640004FF480428360026143618361C36103620E
:10465000FCF7F0F908B1FFF717FF1F4800F0C6FAA2
:10466000FEF724F82422002106A800F02EFA1B4BA6
:10467000069318230DEB03024FF4806400211848C1
:104680000C930B94FEF74EF8164B24221860002171
:104690000FA800F01AFA144B0F930FAA0823002159
:1046A000124815931494FEF73DF8114B1860FEF76D
:1046B00019F8FEE70038024000080240000C0240F2
:1046C00000000240A0860100185C00200054004059
:1046D0006C5C0020005800407C600008826000088C
:1046E000B5400008105C00208E6000089142000870
:1046F000C45C00200A460146014800F0EFB900BF43
:104700004F60000807B50F4B00220092596C41F42E
:1047100080415964596C01F48041009100990192E3
:10472000196C41F0805119641B6C03F080530193A4
:104730000F216FF00100019BFBF76CFF03B05DF8E8
:1047400004FB00BF0038024030B514228BB0044691
:1047500000210DEB020000F0B8F923683A4A9342B9
:1047600038D13A4C3A48002500F040FA0195236BC5
:10477000384843F002032363236B03F002030193E1
:10478000019BC02305931223069301230793032360
:10479000089305A904230993FBF7A8FF0295236C4E
:1047A00043F400132364236C03F400132A46052109
:1047B00002931F20029BFBF72DFF1F20FBF76CFFCE
:1047C00020202A460521FBF725FF2020FBF764FF68
:1047D0000BB030BD204A9342FAD11C4C1F48002533
:1047E00000F004FA0395236B1A4843F00203236395
:1047F000236B03F002030393039B4FF44063059381
:1048000012230693012307930323089305A9042386
:104810000993FBF76BFF0495236C43F48003236437
:10482000236C03F480032A46052104932120049B72
:10483000FBF7F0FE2120FBF72FFF22202A4605215F
:10484000FBF7E8FE2220C1E7005400400038024098
:10485000976000080004024000580040AE60000865
:1048600030B5014689B000221820FBF7D3FE18208E
:10487000FBF712FF0025154B02955A6C144C42F4BD
:1048800080325A645B6C03F48033029301A903A85D
:10489000029BFDF70BFDFDF7F9FC0E4B236040F288
:1048A000E733E36040000C4BB0FBF3F0013860608D
:1048B00020462561A560FDF777FE20B92046FDF76B
:1048C00015FD09B030BD0120FBE700BF00380240F4
:1048D000CC5C00200040014040420F007047FEE7E2
:1048E000FEE7FEE7FEE770470148FDF755BD00BF54
:1048F000CC5C00200148FCF7E1BC00BF185C002044
:104900000148FDF7FFB800BF185C00200148FCF724
:10491000D5BC00BF6C5C00200148FDF7F3B800BFB8
:104920006C5C002070B50E4615460C46A31B9D42DC
:1049300001DC284670BDAFF3008004F8010BF5E7F9
:1049400010B500234FF06044934201DB104610BDC8
:10495000D4F8800EC00703D5D4F8000EC00702D4E7
:104960000133F1E700BF20680028FBD0C85C20704D
:10497000F6E7000008B50A4B1968024609B909496B
:1049800019601868694602448A4206D900F068F83E
:104990000C2303604FF0FF3008BD1A6008BD00BF54
:1049A000C05B0020105D00204FF0FF3070474FF4D7
:1049B00000534B6000207047012070470020704773
:1049C0000F49D1F8883043F47003C1F888300D4B9B
:1049D0001A68002042F001021A6098601A6822F0FA
:1049E000847222F480321A60074A5A601A6822F4EC
:1049F00080221A60D8604FF000638B60704700BF60
:104A000000ED00E00038024010300024DFF834D020
:104A1000002103E00C4B5B58435004310B480C4B16
:104A200042189A42F6D30B4A02E0002342F8043BB4
:104A3000094B9A42F9D3FFF7C3FF00F017F8FFF7CD
:104A40007BFD704700000220886100080000002004
:104A5000D8000020D8000020105D0020FEE70000F4
:104A6000014B1868704700BF7400002070B50D4EF0
:104A70000D4CA41BA4100025A54209D10B4E0C4CD3
:104A800001F090F9A41BA4100025A54205D170BD2A
:104A900056F8253098470135EEE756F82530984707
:104AA0000135F2E78061000880610008806100083C
:104AB0008461000810B5431E0A44914200D110BD24
:104AC00011F8014B03F8014FF7E702440346934204
:104AD00000D1704703F8011BF9E700000FB40A4B3F
:104AE00013B51C6824B1A36913B9204600F05CFA21
:104AF00005AB049AA1680193204600F069FD02B05D
:104B0000BDE8104004B070477400002038B5084B71
:104B10001C68054624B1A36913B9204600F044FA85
:104B2000A26829462046BDE8384000F0FDBF00BF1E
:104B30007400002070B50E46054618B183690BB9A4
:104B400000F032FAAB69AC6813B9284600F02CFAD1
:104B5000234B9C4217D16C68A3891B071DD5236981
:104B6000DBB1013EA36816F8011F013BA360E9B960
:104B7000002B2EDA22460A21284600F063F8013085
:104B800011D00A2070BD174B9C4201D1AC68E3E7FD
:104B9000154B9C4208BFEC68DEE72146284600F032
:104BA000A3F80028DDD04FF0FF3070BD002B04DAF1
:104BB000A269934206DB0A2904D023685A1C2260AA
:104BC0001970CFE72246284600F03CF80130C9D1E1
:104BD000E9E723680A205A1C2260187070BD00BFE4
:104BE0000461000824610008E4600008024B0146EB
:104BF0001868FFF79FBF00BF740000200EB400B517
:104C00009CB04FF402711DABADF8141002900690E9
:104C10006FF000410A48049107914FF6FF7153F875
:104C2000042BADF816100068019302A900F0B2FB46
:104C3000029B00221A701CB05DF804EB03B07047B1
:104C400074000020F8B50E461446054618B1836975
:104C50000BB900F0A9F9214B9C422AD16C68A369D9
:104C6000A360A3891A072ED5236963B3236920683B
:104C7000C01A6369F6B29842374604DB21462846DB
:104C800000F028F928BBA368013BA36023685A1CE5
:104C900022601E7063690130984204D0A389DB074B
:104CA00019D50A2E17D12146284600F013F990B1E4
:104CB0000FE00B4B9C4201D1AC68D0E7094B9C4202
:104CC00008BFEC68CBE72146284600F00DF8002825
:104CD000CCD04FF0FF373846F8BD00BF0461000864
:104CE00024610008E4600008324B70B51D68064678
:104CF0000C4625B1AB6913B9284600F055F92E4B87
:104D00009C420FD16C68B4F90C309AB215072CD4C0
:104D1000D00611D40922326043F04003A3814FF042
:104D2000FF3070BD254B9C4201D1AC68EBE7244BB2
:104D30009C4208BFEC68E6E7510712D5616B41B1B0
:104D400004F14403994202D0304600F01BFA0023DC
:104D50006363A38923F02403A38100236360236991
:104D60002360A38943F00803A38123694BB9A38976
:104D700003F42073B3F5007F03D02146304600F0E2
:104D8000C1F9A28912F001030CD00023A36063696A
:104D90005B42A361236953B9B4F90C3013F080006E
:104DA000BAD170BD920758BF6369A360F2E70020D3
:104DB000F7E700BF740000200461000824610008C8
:104DC000E46000088A892DE9F041054610070C4689
:104DD0005AD44B68002B05DC0B6C002B02DC002046
:104DE000BDE8F081E66A002EF9D0002312F480526B
:104DF0002F682B6033D0606DA3895A0705D563688F
:104E0000C01A636B0BB1236CC01A00230246E66A1A
:104E1000216A2846B047431CA38906D129681D2969
:104E20004BD82B4ACA40D60747D500226260D90426
:104E30002269226004D5421C01D12B6803B9606548
:104E4000616B2F600029CAD004F14403994202D05B
:104E5000284600F097F900206063BDE8F081216AE0
:104E600001232846B047411CC6D12B68002BC3D074
:104E70001D2B01D0162B01D12F60B0E7A38943F081
:104E80004003A381BDE8F0810F69002FA7D09307ED
:104E90000E6808BF4B690F6018BF0023A6EB070818
:104EA0008B60B8F1000F9ADD43463A46216AA66A44
:104EB0002846B047002807DCA38943F04003A381BC
:104EC0004FF0FF30BDE8F0810744A8EB0008E8E7A9
:104ED0000100402038B50B6905460C46DBB118B11E
:104EE00083690BB900F060F80C4B9C4209D16C68E7
:104EF000B4F90C307BB121462846BDE83840FFF7B5
:104F000061BF074B9C4201D1AC68F1E7054B9C4265
:104F100008BFEC68ECE7002038BD00BF0461000862
:104F200024610008E4600008014900F0A9B800BF4E
:104F3000D54E0008002310B504460360436083602B
:104F400081814366C28103614361836119460822FE
:104F50005C30FFF7BAFD054B6362054BA362054B5E
:104F6000E362054B2462236310BD00BFB55B0008FC
:104F7000D75B00080F5C0008335C000870B54A1E60
:104F8000682555430E4605F1740100F049F90446C1
:104F900040B1002180E842000C30A06005F16802B9
:104FA000FFF793FD204670BD836910B5044633BBFF
:104FB0008364C3640365124B124A1B688262984281
:104FC00004BF0123836100F01FF86060204600F0F9
:104FD0001BF8A060204600F017F80022E0600421D2
:104FE0006068FFF7A7FF01220921A068FFF7A2FF71
:104FF00002221221E068FFF79DFF0123A36110BD8B
:10500000E0600008294F0008F8B51C4B1E68B36922
:10501000074613B93046FFF7C7FF4836B4687368D0
:10502000013B03D5336833B13668F7E7B4F90C5068
:105030006DB16834F4E704213846FFF79FFF306014
:105040000028F1D10C233B6004462046F8BD4FF602
:10505000FF73E3810123A38165662560A560656018
:1050600025616561A5610822294604F15C00FFF70E
:105070002CFD6563A563A564E564E6E7E0600008D0
:105080002DE9F8438046894600F14804002614B90A
:105090003046BDE8F883A5686768013F01D52468FC
:1050A000F5E7AB89012B07D9B5F90E30013303D0F1
:1050B00029464046C84706436835EEE770B50E46B8
:1050C000B1F90E10002990B014461D4607DA0023EE
:1050D0002B60B3891A0610D44FF480630EE001AA46
:1050E00000F0CEFD0028F2DB029A02F47042A2F535
:1050F00000535A425A412A60EEE7402300202360C1
:1051000010B070BD8B8973B59D0706460C4607D558
:1051100004F14703236023610123636102B070BD82
:1051200001AB6A46FFF7CAFF00990546304600F01A
:1051300077F848B9B4F90C309A05EFD423F003039B
:1051400043F00203A381E3E70D4BB362A389206020
:1051500043F08003A381009B6361019B20615BB1ED
:10516000B4F90E10304600F09DFD28B1A38923F05C
:10517000030343F00103A381A3891D43A581CDE768
:10518000294F000838B50546002945D051F8043CA0
:105190000C1F002BB8BFE41800F0C0FD1F4A1368B5
:1051A000104633B9636014602846BDE8384000F00B
:1051B000B6BDA3420CD921686218934204BF1A6895
:1051C0005B68636004BF521822600460ECE713461A
:1051D0005A680AB1A242FAD919685818A0420BD1EC
:1051E00020680144581882421960DDD11068526865
:1051F0005A6001441960D7E702D90C232B60D3E72A
:10520000206821188A4204BF11685268626004BF96
:10521000091821605C60C7E738BD00BFC45B00208F
:1052200070B5CD1C25F0030508350C2D38BF0C25B5
:10523000002D064601DBA94203D90C233360002070
:1052400070BD00F06BFD234A1468214691B9224CD1
:1052500023681BB9304600F09DFC2060294630468B
:1052600000F098FC431C26D10C233360304600F03C
:1052700056FDE4E70B685B1B1AD40B2B0FD90B60B0
:10528000CD50CC18304600F04AFD04F10B00231D30
:1052900020F00700C31A1BD05A42E25070BD8C4266
:1052A0000DBF63684B686360136018BF0C46E9E785
:1052B0000C464968CAE7C41C24F00304A04205D088
:1052C000211A304600F066FC0130CDD02560D9E7C8
:1052D00070BD00BFC45B0020C85B00202DE9F04713
:1052E0008E689E4282460C469146984635D88A89F9
:1052F00012F4906F31D0256809696F1A656902232D
:1053000005EB450595FBF3F508F101033B449D4290
:1053100038BF1D46530531D52946FFF781FF0646A4
:1053200050B90C23CAF80030A38943F04003A3818D
:105330004FF0FF30BDE8F0873A462169FFF7BAFB2E
:10534000A38923F4906343F08003A3812661656100
:105350003E44ED1B2660A5604646464528BF4646AE
:1053600032464946206800F0BFFCA3689B1BA3603F
:1053700023681E4426600020BDE8F0872A4600F01E
:10538000CFFC06460028E1D121695046FFF7FAFE1E
:10539000C7E700002DE9F04F9DB0804603938B894D
:1053A0001C060D4616460FD50B696BB94021FFF759
:1053B00037FF2860286128B90C23C8F800304FF067
:1053C000FF30C5E040236B610023099320238DF853
:1053D000293030238DF82A304FF0010B37463C46F8
:1053E00014F8013B002B3CD1B7EB060A0BD0534617
:1053F000324629464046FFF771FF013000F0A38096
:10540000099B534409933B78002B00F09C800023B8
:105410004FF0FF3204930793059206938DF85330B3
:105420001A93052221785048FAF7D2FE671C049B94
:10543000D8B9D90644BF20228DF853201A0744BF9B
:105440002B228DF8532022782A2A16D0079A002181
:105450000A20274601343B78303B092B51D9C9B18A
:1054600011E0252BC0D02746B9E73F4A801A0BFA36
:1054700000F0184304903C46D3E7039A111D1268CC
:105480000391002A01DB079204E0524243F0020339
:10549000079204933B782E2B0ED17B782A2B07F1B1
:1054A000010132D1039B1A1D1B680392002BB8BF68
:1054B0004FF0FF33023705932C4C397803222046F6
:1054C000FAF786FE38B14023001B03FA00F0049B74
:1054D000034304930137397825488DF828100622B4
:1054E0007E1CFAF775FE002835D0224BFBB9039BD2
:1054F000073323F0070308330393099B4B440993B5
:105500006CE700FB02320121A3E700230593184654
:105510000A240F4601313A78303A092A03D9002B80
:10552000CAD00590C8E704FB00200123F1E703ABD4
:1055300000932A46104B04A94046AFF30080B0F117
:10554000FF3F8146D9D1AB895B063FF538AF09985B
:105550001DB0BDE8F08F03AB00932A46064B04A9AB
:10556000404600F0C1F9EAE7446100084A610008DA
:105570004E61000800000000DD5200089368013B06
:10558000002B10B4936009DA9469A34202DBCBB21A
:105590000A2B03D15DF8044BFFF754BB1368581C6A
:1055A00010601970C8B25DF8044B7047F8B5064634
:1055B0000F461446D518AC4201D1002007E03A4608
:1055C00014F8011B3046FFF7D9FF431CF3D1F8BD97
:1055D0002DE9F04F9DB00C4617460393064618B1CF
:1055E00083690BB9FFF7E0FC7C4B9C4257D1746890
:1055F000A38918075DD52369002B5AD0002309938E
:1056000020238DF8293030238DF82A304FF0010BFC
:10561000B846454615F8013B002B55D1B8EB070AB3
:105620000BD053463A4621463046FFF7BFFF0130C4
:1056300000F0C480099B5344099398F80030002B74
:1056400000F0BC8000234FF0FF32049307930592D3
:1056500006938DF853301A93052229786048FAF79B
:10566000B7FD05F10108049B002831D1D90644BFDC
:1056700020228DF853201A0744BF2B228DF8532087
:105680002A782A2A2CD0079A00210A20A846013518
:1056900098F80030303B092B6DD971B326E0514B9F
:1056A0009C4201D1B468A3E74F4B9C4208BFF46809
:1056B0009EE721463046FFF717FB00289ED04FF0AB
:1056C000FF301DB0BDE8F08F252BA7D0A846A0E77E
:1056D000434A801A0BFA00F0184304904546BBE792
:1056E000039A111D12680391002A01DB079204E05E
:1056F000524243F002030792049398F800302E2B95
:1057000010D198F801302A2B08F1010137D1039B01
:105710001A1D1B680392002BB8BF4FF0FF3308F12E
:1057200002080593314D98F8001003222846FAF735
:105730004FFD40B14023401B03FA00F0049B03439C
:10574000049308F1010898F8001029488DF82810F2
:10575000062208F10107FAF73BFD002834D0254B5B
:1057600003BB039B073323F0070308330393099B11
:105770004B4409934CE700FB0232012186E70023EA
:10578000059318460A258846013198F80020303ADA
:10579000092A03D9002BC5D00590C3E705FB0020DB
:1057A0000123F0E703AB00932246134B04A93046D4
:1057B000AFF30080B0F1FF3F8146D8D1A3895B06EB
:1057C0003FF57DAF09987CE703AB009322460A4B77
:1057D00004A9304600F088F8ECE700BF0461000837
:1057E0004461000824610008E46000084A61000880
:1057F0004E61000800000000AD5500082DE9F0479B
:1058000091461F468A680B69DDF820809342B8BF35
:105810001346C9F8003091F8432006460C4612B1F1
:105820000133C9F800302368990642BFD9F8003027
:105830000233C9F80030256815F0060507D104F1D8
:10584000190AE368D9F800209B1A9D4229DB94F8D5
:1058500043302268003318BF012392062ED404F18E
:10586000430239463046C047013021D02368E568FD
:10587000D9F8002003F00603042B08BFAD1AA36873
:1058800022690CBF25EAE57500259342C4BF9B1A27
:10589000ED184FF000091A344D451BD10020BDE82A
:1058A000F0870123524639463046C047013003D1C4
:1058B0004FF0FF30BDE8F0870135C2E7E1185A1C10
:1058C000302081F84300224494F8451082F84310B8
:1058D0000233C4E70123224639463046C04701302F
:1058E000E6D009F10109D7E72DE9F04317460A7E12
:1058F00085B06E2A984606460C460C9B01F1430E75
:1059000000F0BC801AD8632A2ED00AD8002A00F0F2
:10591000C880582A00F08A8004F1420584F84220A9
:105920002AE0642A01D0692AF6D121681A6811F0A8
:10593000800F23D0111D1960136827E0732A00F02F
:10594000B48008D86F2A2AD0702AE5D10A6842F0BC
:1059500020020A6003E0752A21D0782ADCD178225F
:1059600084F845206E4964E01A6801F14205111D72
:105970001960136884F842300123A3E011F0400F4E
:1059800002F104011960D7D0B2F90030002B03DA1C
:105990002D225B4284F8432062490A2217E02068E6
:1059A000196810F0800F03D0081D18600B6806E01E
:1059B00010F0400F01F104001860F7D00B8859492E
:1059C0006F2A14BF0A220822002084F84300656869
:1059D000A560002DC0F29C80206820F004002060AB
:1059E000002B3FD1002D40F095807546082A0BD141
:1059F0002368DA0708D5236962689A42DEBF30233C
:105A000005F8013C05F1FF35AEEB05032361CDF848
:105A100000803B4603AA21463046FFF7EFFE0130E7
:105A200055D14FF0FF3005B0BDE8F08381F8452037
:105A30003C492268186812F0800F00F104051D60CF
:105A400001D0036802E05506FBD50388D00744BFA8
:105A500042F0200222601BB9226822F0200222605C
:105A60001022B1E77546B3FBF2F002FB1033CB5CBA
:105A700005F8013D03460028F5D1B7E708681A6824
:105A8000496910F0800F04D0101D18601368196068
:105A900007E010F0400F02F1040018601368F6D020
:105AA0001980002323617546B1E71A68111D19603A
:105AB0001568626800212846FAF78AFB08B1401B86
:105AC000606063682361002384F843309FE72369A3
:105AD0002A4639463046C0470130A2D023689B078A
